:020000040800F2
:10000000280800207941000841080008430800083A
:10001000470800084B0800084F08000800000000CF
:10002000000000000000000000000000530800086D
:10003000550800080000000057080008590800088B
:100040009341000893410008934100089341000840
:100050009341000893410008934100089341000830
:100060009341000893410008934100089341000820
:100070009341000893410008934100089341000810
:100080009341000893410008934100089341000800
:1000900093410008934100089341000893410008F0
:1000A00093410008934100089341000893410008E0
:1000B00093410008F138000893410008934100087B
:1000C00093410008934100089341000893410008C0
:1000D00093410008E940000893410008934100085B
:1000E00093410008934100089341000893410008A0
:1000F0009341000893410008934100089341000890
:1001000093410008934100086F3B000893410008A9
:10011000934100089341000893410008934100086F
:10012000934100089341000893410008934100085F
:1001300000F002F800F041F80AA090E8000C8244B8
:100140008344AAF10107DA4501D100F036F8AFF295
:10015000090EBAE80F0013F0010F18BFFB1A43F0A5
:1001600001031847B86E0000D86E0000103A24BF93
:1001700078C878C1FAD8520724BF30C830C144BF0C
:1001800004680C607047000000230024002500264E
:10019000103A28BF78C1FBD8520728BF30C148BFEA
:1001A0000B607047782905F05781002070471FB514
:1001B00006F031F91FBD10B510BD05F00BFA114660
:1001C000FFF7F5FF00F06CF805F029FA03B4FFF72C
:1001D000F2FF03BC03F032FF2DE9F84305460F465A
:1001E00014461E46FEB9002C0ADA002300931023A1
:1001F0002D223946284602F015FD604204B207E080
:1002000000230093102320223946284602F00AFDDD
:100210001023009304232246394605F1080080B2DA
:1002200002F0C0FD3AE0002C0ADA0023009310230C
:100230002D223946284602F0F5FC604204B207E060
:1002400000230093102320223946284602F0EAFCBE
:100250000A2094FBF0F8102300930223424639460B
:1002600005F1080080B202F09DFD002300931023E9
:100270002E22394605F1180080B202F0D3FC0A2084
:1002800094FBF0F100FB1148102300930123424638
:10029000394605F1200080B202F084FDBDE8F88304
:1002A00086B000BF03F0A2FD03F002FE4FF416502B
:1002B00003F0D1FE00F0B6FB00F066FF00F000FC9A
:1002C00003F031FB03F0E6FB41F61F41632003F02E
:1002D0005BFB0021FF2003F086FB4FF47840FF49D1
:1002E0000880FFA31022CDE900231346C8220A216B
:1002F0003C2002F004FEFCA31022CDE900231346AB
:10030000C8221E213C2002F0FAFDFBA31022CDE9F9
:1003100000231346C82232213C2002F0F0FD02F0F7
:10032000BDFF89E2F7A31022CDE900231346C822BE
:1003300046213C2002F0E3FDF4A31022CDE9002386
:100340001346C8225A213C2002F0D9FDF1A3102205
:10035000CDE900231346C8226E213C2002F0CFFDD8
:10036000EEA31022CDE900231346C82282213C20AF
:1003700002F0C5FDEBA31022CDE900231346C822ED
:1003800096213C2002F0BBFDE8A31022CDE900231A
:100390001346C822AA213C2002F0B1FDE5A3102299
:1003A000CDE900231346C822BE213C2002F0A7FD60
:1003B000E2A31022CDE900231346C822D2213C201B
:1003C00002F09DFDDFA31022CDE900231346C822D1
:1003D000FA213C2002F093FDDCA31022CDE900239A
:1003E0001346C8224FF48771232002F088FDDAA358
:1003F0001022CDE900231346C8224FF491713C200E
:1004000002F07DFD1F20B549088014E200BF03F013
:100410006FFC81464846B9F1620F37D017DC3028AF
:1004200055D00BDC10285BD003DC48B3022866D122
:100430002FE018284ED0222861D133E0382852D03E
:10044000422856D0522857D05A2858D14EE0A828D2
:100450002ED00CDC90282ED004DC68282ED07A28F0
:100460004DD13AE098282CD0A22848D10BE0B028F2
:100470002AD0C22813D0E02817D0E2283FD10BE0C1
:10048000B7A004903BE0B8A0049038E0B8A0049076
:1004900035E0B8A0049032E0B8A004902FE0BAA0F4
:1004A00004902CE0BAA0049029E0BBA0049026E0C0
:1004B000BBA0049023E0BCA0049020E0BCA004906A
:1004C0001DE0BCA004901AE08DA0049017E0BAA033
:1004D000049014E0B9A0049011E0B9A004900EE0DB
:1004E000B8A004900BE0B8A0049008E0B7A0049076
:1004F00005E0B7A0049002E0B6A0049000BF00BFE2
:100500003B2002F0E6FE044605F05EFE8246B3485C
:100510000168504605F0C6FF04464FF08D4105F0D6
:1005200055FD0590059805F0B7FC06464FF03332AF
:10053000AB4B05F0C9FA0022AA4BCDE9000105F04A
:10054000C3FAA94AA94BCDE9020105F04DF90446C9
:1005500005F070F80590059805F0FAFD04B2002347
:100560002246E6213020FFF737FE3D2002F0B1FEA3
:10057000044605F029FE83463F2002F0AAFE044609
:10058000452002F0A6FEA0F13204204605F01CFE34
:10059000804688F000449649204605F017FD8046C5
:1005A000404605F0D5FD04B200232246E6216C202A
:1005B000FFF712FE3B2002F08CFE044600230246A9
:1005C0006E216C20FFF708FE584605F0C1FD04B20D
:1005D0000023224682216C20FFF7FEFD3F2002F01F
:1005E00078FE04460023024696216C20FFF7F4FDB6
:1005F000432002F06EFE044601230246AA216C202D
:10060000FFF7EAFD404605F0A3FD04B201232246B0
:10061000BE216C20FFF7E0FD472002F05AFE0446A1
:1006200001230246D2216C20FFF7D6FD41460598F2
:1006300002F0B6FE6F48006805F08AFD04B201239F
:100640002246E621A820FFF7C7FD1022049BCDE932
:1006500000231346C8224FF491716C2002F04FFC26
:100660000321654804F0EDFD00BF4021624804F01D
:1006700056FE0028F9D0FC215F4804F0E2FD00BFDF
:1006800040215D4804F04BFE0028F9D0059805F0A4
:100690005FFD84B22146584804F0D3FD00BF4021DD
:1006A000554804F03CFE0028F9D0404605F06CFDAA
:1006B00084B22146504804F0C4FD00BF40214E489A
:1006C00004F02DFE0028F9D04A48006805F040FDEE
:1006D00084B22146484804F0B4FD8FE016000020A3
:1006E0004D4158490000000032303132313232364B
:1006F0003830333100000000323031352F352F32A1
:100700003300000050574D3A000000004D50553660
:1007100030353000582056414C3A0000592056419F
:100720004C3A00005A2056414C3A00005820414EA5
:10073000473A00005920414E473A00005A20414EA6
:10074000473A000053504545443A0000504F534942
:1007500054494F4E3A0000004B455920563A00008C
:100760004552524F52000000504F57455200000072
:1007700055500000504C415900000000414C494583
:100780004E54454B000000005249474854000000B9
:100790004C45465400000000564F4C2D0000000010
:1007A000444F574E00000000564F4C2B00000000F5
:1007B000310000003200000034000000350000006D
:1007C000360000003700000038000000390000004B
:1007D0003000000044454C45544500001C000020FA
:1007E0003333F33F008066401F85EB51B81E09404C
:1007F00000003042540000200038014000BF40217A
:100800000E4804F08CFD0028F9D0FC210B4804F0C0
:1008100018FD00BF4021094804F081FD0028F9D0EF
:100820000321064804F00DFD00BF4021034804F0F9
:1008300076FD0028F9D0E9E574E5000000380140B4
:10084000704700BFFEE700BFFEE700BFFEE700BF46
:10085000FEE7704770477047704700000021002096
:10086000674A126842F48032654B1A6000BF644ADE
:10087000126802F40030491C10B9B1F5A06FF6D12E
:100880005F4A126812F4003F01D0012000E000200E
:10089000012842D15B4A126842F01002594B1A609B
:1008A0001A46126822F003021A601A46126842F0D1
:1008B00002021A60524A5268514B5A601A465268F4
:1008C0005A601A46526842F480625A601A46526868
:1008D00022F47C125A601A46526842F4E8125A60B6
:1008E0001A46126842F080721A6000BF444A1268C9
:1008F00012F0007FFAD0424A526822F00302404BC5
:100900005A601A46526842F002025A6000BF3C4ADE
:10091000526802F00C02082AF9D1704710B5FFF7AF
:100920009DFF10BD10B53648006840F00100344905
:100930000860084640683449084031494860084624
:100940000068324908402E4908600846006820F4D3
:10095000802008600846406820F4FE0048604FF49C
:100960001F008860FFF7DAFF4FF000602849086039
:1009700010BD10B5002100200022214B5B6803F060
:100980000C0121B1042906D0082928D107E0214B08
:10099000214C236027E01F4B1F4C236023E0184BA2
:1009A0005B6803F47010164B5B6803F4803202231B
:1009B00003EB904022B9194B4343174C23600DE0E1
:1009C0000F4B5B6813F4003F04D0144B4343124CAD
:1009D000236003E00F4B43430F4C236003E00D4BB8
:1009E0000D4C236000BF00BF054B5B68C3F30313CE
:1009F0000B4CE15C084B1B68CB40074C236010BDDF
:100A000000100240002002400000FFF8FFFFF6FE49
:100A100008ED00E000127A000000002000093D000F
:100A20000400002008B50121142004F060FA4FF4FE
:100A30008050ADF8000010208DF8030003208DF8E1
:100A4000020069461C4803F09FFF0120ADF800003A
:100A500010208DF8030003208DF802006946164827
:100A600003F092FF0420ADF8000010208DF8030081
:100A700003208DF8020069460F4803F085FF4FF40C
:100A80000060ADF8000010208DF8030003208DF801
:100A900002006946084803F077FF1020ADF8000017
:100AA0006946064803F070FF2020ADF80000694653
:100AB000024803F069FF08BD000801400010014032
:100AC00008B50121442004F012FA1C20ADF8000002
:100AD00048208DF803006946354803F055FF012092
:100AE000ADF8000028208DF803006946314803F076
:100AF0004BFF08BD10B5044614B101202E49087003
:100B00002D480078002837D01021294803F0CDFF68
:100B100078B10821264803F0C8FF50B104212448C9
:100B200003F0C3FF28B10121224803F0BEFF0128D2
:100B300022D10A2003F091F900201F4908701021EA
:100B40001B4803F0B2FF08B9012010BD0821184866
:100B500003F0ABFF08B90220F7E70421144803F0C3
:100B6000A4FF08B90320F0E70121124803F09DFF1C
:100B700001281BD10420E8E710210D4803F095FF60
:100B8000012813D108210A4803F08FFF01280DD155
:100B90000421074803F089FF012807D101210548F6
:100BA00003F083FF10B90120034908700020CCE74F
:100BB000001801400008014014000020FD49088091
:100BC0007047FD4908807047FB4800887047F94A24
:100BD00010804FF0D842A2F80018704710B50446B4
:100BE0002046FFF7EBFF052003F014F9FFF7ECFFB9
:100BF00010BDF248C079EF4908807047EE4908807F
:100C0000704730B5014601F01F04C1F34513CA0A0D
:100C1000E50205EB43151544A8B230BD00BF010045
:100C2000A0F10102D0B2FAD1704710B503460C46CC
:100C3000E2488088A0F51341413905D0DF4880881B
:100C4000A0F5D041043914D1DC49087AFFF7B6FF8A
:100C50001812FFF7B6FFD8B2FFF7B3FFD749487AAB
:100C6000FFF7ACFF2012FFF7ACFFE0B2FFF7A9FFE0
:100C700012E0D2488079012804D1D0480088401E73
:100C8000C01A83B2CD49087A1946FFF7A0FFCB49B5
:100C9000487A2146FFF79BFF10BD2DE9F04105463C
:100CA0000E4600240027A046C4480088A84203DD61
:100CB000C2484088B04202DC0020BDE8F0813146E5
:100CC0002846FFF7B2FFBD488088A0F5134141399F
:100CD00005D0BA488088A0F5D041043903D12E2030
:100CE000FFF76CFF02E02220FFF768FFB34880881F
:100CF000A0F51341203902D10220FFF78FFFAE4843
:100D0000008800B100240220FFF788FFAA48048869
:100D1000AA488088A0F51341413909D10220FFF784
:100D20007DFFA548B0F80080E7B24FEA072707E04B
:100D3000A2488088A0F5D041043901D19E4804889A
:100D40009E488088A0F51341253917D09B4880889C
:100D5000A0F58A41353911D098488088A0F58A419C
:100D600031390BD095488088A0F50941893905D0E3
:100D700092488088A0F53541053901D120469CE78D
:100D80008E488088A0F51341413907D1E012C00296
:100D9000B91240EA411040EAE8208EE72046FFF70A
:100DA00030FF8AE700B585488088A0F513414139B6
:100DB00005D082488088A0F5D041043903D129208C
:100DC000FFF7FCFE04E040F273110720FFF7FFFE7F
:100DD00000BD00B579488088A0F51341413905D0A0
:100DE00076488088A0F5D041043903D12820FFF748
:100DF000E5FE03E000210720FFF7E9FE00BD70B526
:100E00000446002300266D48807901281ED16B48D6
:100E10008088A0F5D041043918D0082C15D2DFE81D
:100E200004F00406080A0C0E101206240DE0072434
:100E30000BE0042409E0052407E0012405E0002478
:100E400003E0032401E0022400BF00BF5B48808868
:100E5000A0F51341413905D058488088A0F5D0410C
:100E600004397CD1082C1CD2DFE804F00406090CFC
:100E70000F12151800BF14E043F0800311E043F097
:100E800040030EE043F0C0030BE043F0200308E012
:100E900043F0600305E043F0A00302E043F0E00309
:100EA00000BF00BF362643F0080344488088A0F501
:100EB000D041043901D143F0020319463046FFF70F
:100EC00086FE13F0200F0DD03C4800883B4949882E
:100ED000884214DA3948058840883849088008462D
:100EE00045800CE03548008834494988884206DD51
:100EF00032480588408831490880084645802F4996
:100F0000087AFFF75BFE0020FFF75BFE0020FFF78B
:100F100058FE2A490988491EC1F30F20FFF751FEE8
:100F200026490988491EC8B2FFF74BFE2349487A73
:100F3000FFF744FE0020FFF744FE0020FFF741FECC
:100F40001E494988491EC1F30F20FFF73AFE1B498D
:100F50004988491EC8B2FFF734FE38E0FFE7082C85
:100F60001CD2DFE804F004070A0D0F12151843F035
:100F7000300313E043F0100310E043F020030DE0D2
:100F800000BF0BE043F0380308E043F0280305E01E
:100F900043F0180302E043F0080300BF00BF074816
:100FA0008088A0F5094189390AD1112646F240010D
:100FB0000B4308E0FE07006C0008006CE000002016
:100FC000032643F4805319463046FFF700FE70BDF8
:100FD00030B504460D4629462046FFF726FEFFF7AA
:100FE00008FEFF480088FF49088030BD30B5034641
:100FF0000C461546FC488088A0F51341413905D0C0
:10100000F9488088A0F5D041043914D1F649087A0E
:10101000FFF7D4FD1812FFF7D4FDD8B2FFF7D1FDCA
:10102000F149487AFFF7CAFD2012FFF7CAFDE0B286
:10103000FFF7C7FD12E0EC488079012804D1EA48A7
:101040000088401EC01A83B2E749087A1946FFF7A4
:10105000BEFDE549487A2146FFF7B9FDE248C0796F
:10106000E24908804FF0D840A0F8005830BD10B5D4
:101070000446002C3DD1DC498871F02008804FF4F3
:10108000A070488008468088A0F51341413905D0FA
:10109000D5488088A0F5D041043914D12C20D249FC
:1010A000C8712A2008722B20487208468088A0F553
:1010B000D04104394ED14FF4A070CB4908804FF491
:1010C000F070488046E0C8488088A0F50941893919
:1010D00007D12220C449C8714E2008724F2048729F
:1010E00038E02220C049C8712020087221204872AF
:1010F00030E0BD488088A0F5D04104392AD00120D5
:10110000B94988714FF4A0700880F02048800846E3
:101110008088A0F51341413907D12C20B249C8710C
:101120002A2008722B20487214E0AF488088A0F56E
:101130000941893907D12220AB49C8714F20087273
:101140004E20487206E02220A749C871212008726B
:10115000202048720020FFF752FE10BD70B50446F3
:101160000026A14805884088454300210846FFF72E
:101170005CFDFFF73EFD00BF03E09A48048006F1E6
:101180000106AE42F9D370BD00B59FB0012108023F
:1011900003F0A0FE012140F2691003F0A8FE012037
:1011A000ADF8780010208DF87B0003208DF87A00D0
:1011B0001EA98F4803F0E8FB4CF23370ADF87800BD
:1011C00018208DF87B0003208DF87A001EA989482D
:1011D00003F0DAFB4FF68070ADF8780018208DF838
:1011E0007B0003208DF87A001EA9834803F0CCFB16
:1011F00041F20100ADF8780018208DF87B00032043
:101200008DF87A001EA97D4803F0BEFB01200890EE
:10121000002009900F200A9000200B900C900D9058
:101220000E900190029003200390002004900590FE
:101230000690079006200F9000201090119010202B
:1012400012900020139015901490169017904FF460
:1012500080501890002019904FF480401A90002080
:101260001B9008A81C9001A81D900FA803F06FF810
:101270000121062003F0CCF9322002F0EEFD01211D
:101280000020FFF7A4FC322002F0E7FD0020FFF76A
:10129000A5FC5549888008468088FF280ADB084657
:1012A0008088A0F57F41FF3904D04F488088B0F591
:1012B000134F45D1D320FFF781FCFFF785FCFFF7E3
:1012C00083FCFFF781FC4849888008468088000637
:1012D000000C8880FFF778FC43498988084342491D
:1012E000888008468088A0F51341413918D0BF2076
:1012F000FFF764FCFFF768FCFFF766FCFFF764FC90
:10130000FFF762FC38498880084680880006000C98
:101310008880FFF759FC344989880843324988801E
:1013200031488088A0F51341413909D02E48808882
:10133000A0F5D041043903D049F241302A498880D0
:10134000294881882EA004F045F827488088A0F518
:10135000134141397ED1CF20FFF730FC0020FFF749
:1013600030FCC120FFF72DFC3020FFF72AFCED20D8
:10137000FFF724FC6420FFF724FC0320FFF721FC87
:101380001220FFF71EFC8120FFF71BFCE820FFF76F
:1013900015FC8520FFF715FC1020FFF712FC7A20C2
:1013A000FFF70FFCCB20FFF709FC3920FFF709FC02
:1013B0002C20FFF706FC0020FFF703FC3420FFF78A
:1013C00000FC0220FFF7FDFBF720FFF7F7FB2020D2
:1013D000FFF7F7FBEA20FFF7F1FB002018E0000021
:1013E000160000200008006CE0000020FE07006CE2
:1013F000000C014000140140001801400020014091
:10140000204C43442049443A25780D0A000000004E
:10141000FFF7D7FB0020FFF7D4FBC020FFF7CEFB80
:101420001B20FFF7CEFBC120FFF7C8FB0120FFF711
:10143000C8FBC520FFF7C2FB3020FFF7C2FB3020FE
:10144000FFF7BFFBC720FFF7B9FBB720FFF7B9FBDA
:10145000362000E0B1E0FFF7B1FB4820FFF7B1FB19
:101460003A20FFF7ABFB5520FFF7ABFBB120FFF7AE
:10147000A5FB0020FFF7A5FB1A20FFF7A2FBB62073
:10148000FFF79CFB0A20FFF79CFBA220FFF799FBCC
:10149000F220FFF793FB0020FFF793FB2620FFF7D6
:1014A0008DFB0120FFF78DFBE020FFF787FB0F206E
:1014B000FFF787FB2A20FFF784FB2820FFF781FB3B
:1014C0000820FFF77EFB0E20FFF77BFB0820FFF7CD
:1014D00078FB5420FFF775FBA920FFF772FB432030
:1014E000FFF76FFB0A20FFF76CFB0F20FFF769FB8C
:1014F0000020FFF766FB0020FFF763FB0020FFF7EB
:1015000060FB0020FFF75DFBE120FFF757FB0020A9
:10151000FFF757FB1520FFF754FB1720FFF751FB90
:101520000720FFF74EFB1120FFF74BFB0620FFF7CC
:1015300048FB2B20FFF745FB5620FFF742FB3C20E2
:10154000FFF73FFB0520FFF73CFB1020FFF739FBBF
:101550000F20FFF736FB3F20FFF733FB3F20FFF75D
:1015600030FB0F20FFF72DFB2B20FFF727FB002080
:10157000FFF727FB0020FFF724FB0120FFF721FBEB
:101580003F20FFF71EFB2A20FFF718FB0020FFF784
:1015900018FB0020FFF715FB0020FFF712FBEF20E0
:1015A000FFF70FFB1120FFF709FB782002F055FC35
:1015B0002920FFF703FB01F010BAFF488088A0F54F
:1015C000D04104397ED11120FFF7F8FA142002F03F
:1015D00044FCD020FFF7F2FA0720FFF7F2FA42208E
:1015E000FFF7EFFA1D20FFF7ECFAD120FFF7E6FA3C
:1015F0000020FFF7E6FA1A20FFF7E3FA0920FFF7C9
:10160000E0FAD220FFF7DAFA0120FFF7DAFA222017
:10161000FFF7D7FAC020FFF7D1FA1020FFF7D1FA71
:101620003B20FFF7CEFA0020FFF7CBFA0220FFF7AE
:10163000C8FA1120FFF7C5FAC520FFF7BFFA03204B
:10164000FFF7BFFAC820FFF7B9FA0020FFF7B9FA91
:101650002520FFF7B6FA2120FFF7B3FA0520FFF7A0
:10166000B0FA0020FFF7ADFA0A20FFF7AAFA6520CA
:10167000FFF7A7FA2520FFF7A4FA7720FFF7A1FAD2
:101680005020FFF79EFA0F20FFF79BFA0020FFF78C
:1016900098FAF820FFF792FA0120FFF792FAFE205D
:1016A000FFF78CFA0020FFF78CFA0220FFF789FA87
:1016B0002020FFF783FA3620FFF780FA0820FFF793
:1016C00080FA00E02AE03A20FFF778FA5520FFF789
:1016D00078FA2B20FFF772FA0020FFF772FA002049
:1016E000FFF76FFA0120FFF76CFA3F20FFF769FA66
:1016F0002A20FFF763FA0020FFF763FA0020FFF7C4
:1017000060FA0120FFF75DFADF20FFF75AFA782030
:1017100002F0A3FB2920FFF751FA4CE7A648808886
:10172000A0F5134125397ED147F6F001E520FFF7FA
:101730004EFA4FF480710120FFF749FA4FF4E0614F
:101740000220FFF744FA41F230010320FFF73FFA8D
:1017500000210420FFF73BFA40F202210820FFF7A6
:1017600036FA00210920FFF732FA00210A20FFF79C
:101770002EFA00210C20FFF72AFA00210D20FFF796
:1017800026FA00210F20FFF722FA00211020FFF790
:101790001EFA07211120FFF71AFA00211220FFF785
:1017A00016FA00211320FFF712FA00210720FFF795
:1017B0000EFA41F290611020FFF709FA40F227215A
:1017C0001120FFF704FA9D211220FFF700FA4FF4D1
:1017D000C8511320FFF7FBF925212920FFF7F7F95E
:1017E0000D212B20FFF7F3F907213020FFF7EFF948
:1017F00040F203313120FFF7EAF903213220FFF7ED
:10180000E6F940F206213520FFF7E1F908213620FC
:10181000FFF7DDF940F206413720FFF7D8F94FF422
:101820004171382000E057E0FFF7D1F90721392056
:10183000FFF7CDF940F202613C20FFF7C8F908211B
:101840003D20FFF7C4F900215020FFF7C0F9EF2138
:101850005120FFF7BCF900215220FFF7B8F940F200
:101860003F115320FFF7B3F94FF427416020FFF7F2
:10187000AEF901216120FFF7AAF900216A20FFF7E4
:10188000A6F900218020FFF7A2F900218120FFF7AF
:101890009EF900218220FFF79AF900218320FFF7AB
:1018A00096F900218420FFF792F900218520FFF7A7
:1018B0008EF910219020FFF78AF94FF4C061922031
:1018C000FFF785F940F233110720FFF780F9222155
:1018D0000020FFF77CF96EE637488088A0F51341B9
:1018E000283968D141F28F01EC20FFF770F941F2FD
:1018F0003421EF20FFF76BF94FF480710120FFF7DF
:1019000066F94FF4E0610220FFF761F941F230011E
:101910000320FFF75CF900210420FFF758F940F29B
:1019200002210820FFF753F900210920FFF74FF9A2
:1019300000210A20FFF74BF901210C20FFF747F99E
:1019400000210D20FFF743F900210F20FFF73FF999
:1019500000211020FFF73BF907211120FFF737F98D
:1019600000211220FFF733F900211320FFF72FF990
:1019700001210720FFF72BF9322002F06EFA41F225
:1019800090411020FFF723F940F227211120FFF7A3
:101990001EF9322002F061FA8A211220FFF717F9AE
:1019A000322002F05AFA4FF4D0511320FFF70FF90A
:1019B0000621292002E08CE0E0000020FFF707F973
:1019C0000D212B20FFF703F9322002F046FA002107
:1019D0002020FFF7FCF800212120FFF7F8F8322043
:1019E00002F03BFA00213020FFF7F1F840F20461E9
:1019F0003120FFF7ECF840F205313220FFF7E7F82D
:101A000000213520FFF7E3F840F609413620FFF7C3
:101A1000DEF84FF401713720FFF7D9F840F20131B9
:101A20003820FFF7D4F840F207713920FFF7CFF8DC
:101A300000213C20FFF7CBF840F60A213D20FFF7BC
:101A4000C6F8322002F009FA00215020FFF7BFF853
:101A5000EF215120FFF7BBF800215220FFF7B7F824
:101A600040F23F115320FFF7B2F84FF427416020B6
:101A7000FFF7ADF801216120FFF7A9F800216A20E6
:101A8000FFF7A5F800218020FFF7A1F800218120B1
:101A9000FFF79DF800218220FFF799F800218320AD
:101AA000FFF795F800218420FFF791F800218520A9
:101AB000FFF78DF810219020FFF789F84FF4C061EF
:101AC0009220FFF784F840F233110720FFF77FF8E8
:101AD00071E5FF488088A0F5134120397ED1084682
:101AE000FFF775F84FF480710120FFF770F84FF49D
:101AF000E0610220FFF76BF841F230010320FFF7AD
:101B000066F800210420FFF762F840F20221082065
:101B1000FFF75DF800210920FFF759F800210A209E
:101B2000FFF755F801210C20FFF751F800210D2097
:101B3000FFF74DF800210F20FFF749F8322002F09F
:101B40008CF940F201110720FFF741F8322002F032
:101B500084F94FF486511020FFF739F8072111203E
:101B6000FFF735F84FF488711220FFF730F84FF483
:101B700030611320FFF72BF800212920FFF727F809
:101B800044F210012B20FFF722F800215020FFF72C
:101B90001EF8EF215120FFF71AF800215220FFF71D
:101BA00016F840F23F115320FFF711F84FF41C5183
:101BB0006020FFF70CF801216120FFF708F80021F1
:101BC0006A20FFF704F800218020FFF700F80021C9
:101BD0008120FEF7FCFF0021822000E02CE0FEF7D0
:101BE000F6FF00218320FEF7F2FF00218420FEF79C
:101BF000EEFF00218520FEF7EAFF10219020FEF77E
:101C0000E6FF00219220FEF7E2FF01219320FEF77C
:101C1000DEFF4FF488719520FEF7D9FF0021972051
:101C2000FEF7D5FF00219820FEF7D1FF40F2731197
:101C30000720FEF7CCFFBEE4A5488088A0F513413D
:101C400031397DD141F21401E720FEF7C0FF4FF496
:101C500080710120FEF7BBFF4FF400710220FEF7F8
:101C6000B6FF41F238010320FEF7B1FF40F2022136
:101C70000820FEF7ACFF00210920FEF7A8FF002195
:101C80000A20FEF7A4FF00210C20FEF7A0FF002190
:101C90000D20FEF79CFF00210F20FEF798FF00218A
:101CA0001020FEF794FF07211120FEF790FF00217E
:101CB0001220FEF78CFF00211320FEF788FFC820BA
:101CC00002F0CBF841F290611020FEF780FF40F265
:101CD00027211120FEF77BFF322002F0BEF80C21F5
:101CE0001220FEF774FF322002F0B7F84FF40061C3
:101CF0001320FEF76CFF11212920FEF768FF0B214E
:101D00002B20FEF764FF322002F0A7F800212020EC
:101D1000FEF75DFF40F23F112120FEF758FF002142
:101D20003020FEF754FF4FF483713120FEF74FFF50
:101D300000213220FEF74BFF4FF40171352000E007
:101D400064E0FEF744FF41F20A613620FEF73FFFF0
:101D500040F207713720FEF73AFF4FF483713820C5
:101D6000FEF735FF40F207713920FEF730FF40F2F1
:101D700002413C20FEF72BFF40F60F413D20FEF7CD
:101D800026FF00215020FEF722FFEF215120FEF711
:101D90001EFF00215220FEF71AFF40F23F11532090
:101DA000FEF715FF4FF41C516020FEF710FF0121D4
:101DB0006120FEF70CFF00216A20FEF708FF0021DA
:101DC0008020FEF704FF00218120FEF700FF0021A4
:101DD0008220FEF7FCFE00218320FEF7F8FE0021A2
:101DE0008420FEF7F4FE00218520FEF7F0FE10218E
:101DF0009020FEF7ECFE4FF4C0619220FEF7E7FE64
:101E000040F233110720FEF7E2FE86E43048808876
:101E1000A0F5A84108397DD14FF480710120FEF76B
:101E2000D6FE4FF4E0610220FEF7D1FE41F2300110
:101E30000320FEF7CCFE00210420FEF7C8FE40F28E
:101E400007210820FEF7C3FE00210920FEF7BFFE90
:101E500000210A20FEF7BBFE00210C20FEF7B7FE92
:101E600000210D20FEF7B3FE00210F20FEF7AFFE8C
:101E7000142001F0F2FF41F2B0611020FEF7A7FE3E
:101E800001211120FEF7A3FE01211720FEF79FFE7E
:101E90004FF49C711220FEF79AFE4FF4006113205C
:101EA000FEF795FE09212920FEF791FE09212A203F
:101EB000FEF78DFE0021A420FEF789FE00215020B0
:101EC000FEF785FEEF215120FEF781FE002101E0A3
:101ED000E00000205220FEF77AFE40F23F1153202E
:101EE000FEF775FE4FF41C516020FEF770FE0121D5
:101EF0006120FEF76CFE00216A20FEF768FE0021DB
:101F00008020FEF764FE00218120FEF760FE0021A4
:101F1000822000E027E0FEF75AFE00218320FEF732
:101F200056FE00218420FEF752FE00218520FEF798
:101F30004EFE13219020FEF74AFE00219220FEF76C
:101F400046FE03219320FEF742FE4FF48871952050
:101F5000FEF73DFE40F273110720FEF738FE3220F7
:101F600001F07BFFB7E4FF488088A0F5A851053950
:101F70007ED10720FEF72BFE322001F06EFF4FF4DA
:101F80008E711220FEF723FE0121A420FEF71FFE12
:101F90000F210820FEF71BFE08210A20FEF717FE7E
:101FA00008210D20FEF713FE40F207713020FEF7E6
:101FB0000EFE07213120FEF70AFE40F203613220B7
:101FC000FEF705FE4FF4E0613320FEF700FE40F21D
:101FD00002213420FEF7FBFD02213520FEF7F7FD3C
:101FE00041F60F713620FEF7F2FD40F207713720FF
:101FF000FEF7EDFD00213820FEF7E9FD0021392034
:10200000FEF7E5FD40F207713A20FEF7E0FD002102
:102010003B20FEF7DCFD07213C20FEF7D8FD002128
:102020003D20FEF7D4FD322001F017FF01210720EB
:10203000FEF7CDFD01211720FEF7C9FD322001F08A
:102040000CFF4FF4BD511020FEF7C1FD40F21721E7
:102050001120FEF7BCFD4FF48F711220FEF7B7FD83
:102060004FF470611320FEF7B2FD00212A2000E03A
:1020700093E0FEF7ACFD0A212920FEF7A8FD4FF4FE
:102080009F711220FEF7A3FD00215020FEF79FFD57
:10209000EF215120FEF79BFD00215220FEF797FD16
:1020A00040F23F115320FEF792FD4FF41C51602087
:1020B000FEF78DFD01216120FEF789FD00216A20D8
:1020C000FEF785FD00218020FEF781FD00218120A3
:1020D000FEF77DFD00218220FEF779FD002183209F
:1020E000FEF775FD00218420FEF771FD002185209B
:1020F000FEF76DFD13219020FEF769FD4FF440714E
:102100009220FEF764FD05219320FEF760FD00217B
:102110009520FEF75CFD00219720FEF758FD002179
:102120009820FEF754FD4FF480710120FEF74FFD1B
:102130004FF4E0610220FEF74AFD41F2380103202E
:10214000FEF745FD00210420FEF741FD00210C2093
:10215000FEF73DFD00210F20FEF739FD0021202074
:10216000FEF735FD00212120FEF731FD212107205A
:10217000FEF72DFD142001F070FE61210720FEF70F
:1021800026FD142001F069FE40F273110720FEF7CE
:102190001EFD142001F061FE9AE472488088A0F5CB
:1021A000354105397DD10846FEF711FD002108466D
:1021B000FEF70DFD00210846FEF709FD0021084647
:1021C000FEF705FD0121A420FEF701FD142001F01A
:1021D00044FE4FF41C516020FEF7F9FC40F202214E
:1021E0000820FEF7F4FC4FF405713020FEF7EFFCF9
:1021F00043F215713120FEF7EAFC40F2046132200F
:10220000FEF7E5FC40F616613320FEF7E0FC42F2F3
:1022100011213420FEF7DBFC4FF4A8513520FEF7E6
:10222000D6FC48F207513620FEF7D1FC41F20741B7
:102230003720FEF7CCFC41F203413820FEF7C7FC03
:1022400020213920FEF7C3FC1A219020FEF7BFFCA5
:1022500000211020FEF7BBFC07211120FEF7B7FC80
:1022600000211220FEF7B3FC00211320FEF7AFFC83
:10227000142001F0F2FD4FF4E6611020FEF7A7FCF8
:1022800040F237111120FEF7A2FC142001F0E5FD09
:102290004FF4DC711220FEF79AFC142001F0DDFDF2
:1022A00000E087E04FF470611320FEF790FC80217E
:1022B0002A20FEF78CFC48212920FEF788FC1420F8
:1022C00001F0CBFD4FF480710120FEF780FC4FF44C
:1022D000E0610220FEF77BFC41F238010320FEF7AB
:1022E00076FC40F202210820FEF771FC00210A2052
:1022F000FEF76DFC00210C20FEF769FC00210D208B
:10230000FEF765FC30210E20FEF761FC0021502015
:10231000FEF75DFCEF215120FEF759FC0021522011
:10232000FEF755FC40F23F115320FEF750FC4FF4EE
:102330001C516020FEF74BFC01216120FEF747FC99
:1023400000216A20FEF743FC11219020FEF73FFC9C
:102350004FF4C0619220FEF73AFC40F20241932014
:1023600002E00000E0000020FEF731FC0221942092
:10237000FEF72DFC142001F070FD01210720FEF76F
:1023800026FC142001F069FD61210720FEF71FFCE7
:1023900040F273110720FEF71AFC00212020FEF7FF
:1023A00016FC00212120FEF712FC22210020FEF75E
:1023B0000EFC12E3FF488088A0F5454105397DD128
:1023C0000846FEF704FC00210846FEF700FC142036
:1023D00001F043FD00210846FEF7F9FB0021084605
:1023E000FEF7F5FB00210846FEF7F1FB0021084649
:1023F000FEF7EDFB0121A420FEF7E9FB142001F01C
:102400002CFD4FF41C516020FEF7E1FB40F6060165
:102410000820FEF7DCFB40F203713020FEF7D7FB0B
:1024200001213120FEF7D3FB04213220FEF7CFFB40
:102430004FF481713320FEF7CAFB4FF44071342012
:10244000FEF7C5FB40F203113520FEF7C0FB1F214C
:102450003620FEF7BCFB40F203713720FEF7B7FBD6
:1024600001213820FEF7B3FB04213920FEF7AFFB32
:1024700015219020FEF7ABFB4FF482611020FEF790
:10248000A6FB40F247211120FEF7A1FB4FF4DE71BD
:102490001220FEF79CFB4FF460611320FEF797FBC0
:1024A000782001F0DAFC4FF480710120FEF78FFBF9
:1024B0004FF400710220FEF78AFB00E050E041F289
:1024C00030010320FEF783FB08210A20FEF77FFB83
:1024D00000210C20FEF77BFB20210E20FEF777FB6E
:1024E00000210F20FEF773FB00212020FEF76FFB79
:1024F00000212120FEF76BFB3D212A20FEF767FB20
:10250000142001F0AAFC2D212920FEF760FB0021F8
:102510005020FEF75CFB4DF2EF015120FEF757FB18
:1025200000215220FEF753FB40F23F115320FEF7EB
:102530004EFB00216120FEF74AFB00216A20FEF7D6
:1025400046FB4FF440719220FEF741FB052193209A
:10255000FEF73DFB4FF480710720FEF738FB3CE2AD
:1025600094488088A0F5094189397DD10121002056
:10257000FEF72DFB4AF6A4010320FEF728FB0021FD
:102580000C20FEF724FB40F60C010D20FEF71FFB8C
:102590004FF42C510E20FEF71AFBB0211E20FEF73F
:1025A00016FB42F63F310120FEF711FB4FF4C061EC
:1025B0000220FEF70CFB00211020FEF708FB46F27C
:1025C00078011120FEF703FB00210520FEF7FFFA3A
:1025D00000210620FEF7FBFA4EF61C711620FEF7CE
:1025E000F6FA03211720FEF7F2FA40F23321072012
:1025F000FEF7EDFA00210B20FEF7E9FA00210F208B
:10260000FEF7E5FA00214120FEF7E1FA0021422021
:10261000FEF7DDFA00214820FEF7D9FA40F23F111B
:102620004920FEF7D4FA00214A20FEF7D0FA002113
:102630004B20FEF7CCFA4FF46F414420FEF7C7FA67
:1026400000214520FEF7C3FA40F23F114620FEF775
:10265000BEFA40F207713020FEF7B9FA4FF401716B
:102660003120FEF7B4FA00E03DE04FF40171322072
:10267000FEF7ADFA40F202513320FEF7A8FA40F21D
:1026800007513420FEF7A3FA4FF401713520FEF70D
:102690009EFA4FF401713620FEF799FA40F202518A
:1026A0003720FEF794FA40F202313A20FEF78FFA13
:1026B00040F202313B20FEF78AFA00212320FEF788
:1026C00086FA00212420FEF782FA4FF400412520EB
:1026D000FEF77DFA00214F20FEF779FA00214E2007
:1026E000FEF775FA79E133488088A0F58A413139DF
:1026F0007ED101210020FEF76AFA0A2001F0ADFB2D
:1027000041F228611020FEF762FA0E211220FEF736
:102710005EFA40F639211320FEF759FA0A2001F03B
:102720009CFB40211120FEF752FA50211520FEF7A4
:102730004EFA0A2001F091FB1E211220FEF747FA03
:102740000A2001F08AFB4FF4B1511020FEF73FFA46
:1027500042F639211320FEF73AFA0A2001F07DFBF8
:102760004FF480710120FEF732FA4FF440710220DD
:10277000FEF72DFA41F238010320FEF728FA40F265
:1027800002210820FEF723FA08210A20FEF71FFA8B
:1027900000213020FEF71BFA40F202413120FEF703
:1027A00016FA4FF483713220FEF711FA40F203510A
:1027B000332001E0E0000020FEF709FA4FF48271B7
:1027C0003420FEF704FA40F201313520FEF7FFF91C
:1027D00040F207713620FEF7FAF940F20531372052
:1027E000FEF7F5F94FF402713820FEF7F0F900E03A
:1027F0003EE040F60B713920FEF7E9F90221412055
:10280000FEF7E5F94FF41C516020FEF7E0F90121D5
:102810006120FEF7DCF94FF404719020FEF7D7F940
:102820004FF485719220FEF7D2F904219320FEF730
:10283000CEF94FF48071A020FEF7C9F901210720DD
:10284000FEF7C5F921210720FEF7C1F92321072052
:10285000FEF7BDF933210720FEF7B9F940F2331135
:102860000720FEF7B4F90021A020FEF7B0F9B4E08C
:10287000FB488088A0F58A413539F8D130211520F0
:10288000FEF7A5F910219A20FEF7A1F920211120C9
:10289000FEF79DF943F228411020FEF798F9022136
:1028A0001220FEF794F941F238011320FEF78FF958
:1028B000282001F0D2FA12210846FEF788F92820D4
:1028C00001F0CBFA43F220411020FEF780F943F2E9
:1028D00038011320FEF77BF9462001F0BEFA0021F3
:1028E0003020FEF774F940F202413120FEF76FF913
:1028F00040F207313220FEF76AF94FF4417133207C
:10290000FEF765F904213420FEF761F940F2014138
:102910003520FEF75CF940F207713620FEF757F9D3
:1029200040F205313720FEF752F94FF4C2613820EA
:10293000FEF74DF94FF4C2613920FEF748F94FF424
:1029400080710120FEF743F94FF440710220FEF739
:102950003EF941F230010320FEF739F940F6080153
:102960000820FEF734F908210A20FEF730F94FF469
:102970001C516020FEF72BF901216120FEF727F999
:102980004FF49F719020FEF722F94FF4807192204E
:10299000FEF71DF94FF480719320FEF718F94FF4FC
:1029A0004051A020FEF713F91021A320FEF70FF9E4
:1029B00001210720FEF70BF921210720FEF707F977
:1029C00023210720FEF703F933210720FEF7FFF844
:1029D00040F233110720FEF7FAF80020FEF747FB1C
:1029E0000120A04908604FF6FF70FEF7B7FB1FB04B
:1029F00000BD2DE9F04F05460E4617469846DDF816
:102A000024A04FF0000B781B401C1FFA80FB3446BB
:102A100013E021462846FEF708F9FEF7EAF84FF0E2
:102A2000000906E05046FEF7CCF809F101001FFA54
:102A300080F9D945F6DB601C84B24445E9DDBDE888
:102A4000F08F2DE9F84F07460D4690469946DDF880
:102A500028B0A8EB0700401C80B20090A9EB05004D
:102A6000401C1FFA80FA002416E0281981B238466B
:102A7000FEF7DBF8FEF7BDF8002608E004FB0A606D
:102A80003BF810007849088006F1010086B20098F2
:102A90008642F3DB601C84B25445E6DBBDE8F88F68
:102AA0002DE9FF4F84B081468A46002003900290B2
:102AB0000698A0EB09050798A0EB0A06CDF804904C
:102AC000CDF800A0002D01DD012705E00DB900279C
:102AD00002E04FF0FF376D42002E02DD4FF001089B
:102AE00006E016B94FF0000802E04FF0FF387642DA
:102AF000B54201DD2C4600E034464FF0000B21E0EA
:102B0000009881B2019880B2FEF762FA03982844D7
:102B100003900298304402900398A04205DD039888
:102B2000001B03900198384401900298A04205DDF3
:102B30000298001B02900098404400900BF10100A5
:102B40001FFA80FB601C8345DADD08B0BDE8F08F1A
:102B5000F0B504460D4616461F462B46324629461A
:102B60002046FFF79DFF3B46224629462046FFF7B9
:102B700097FF3B46324639462046FFF791FF3B46DA
:102B8000324629463046FFF78BFFF0BD2DE9F04372
:102B900006460F469046002445460320A0EB480910
:102BA0003CE07A1B91B2321990B2FEF711FA3A1B4F
:102BB00091B2721990B2FEF70BFA3A1991B27219EA
:102BC00090B2FEF705FA7A1991B2321990B2FEF777
:102BD000FFF97A1991B2321B90B2FEF7F9F93A195E
:102BE00091B2721B90B2FEF7F3F97A1B91B2321BCD
:102BF00090B2FEF7EDF93A1B91B2721B90B2FEF75C
:102C0000E7F9641CB9F1000F03DAA000801D8144CC
:102C100004E0601B80000A3081446D1EAC42C0DDC0
:102C2000BDE8F0832DE9F84F05460F4690461E4655
:102C300000970E48B0F80090A8F1200000F0FF08BF
:102C40000A98002859D1002454E00C2E12D108EB28
:102C50004800074901EB800010F804A00FE00000D5
:102C6000E0000020808121420008006C1600002056
:102C70008E650008BB4800EB081010F804A04FF068
:102C8000000B31E01AF0800F03D0B748A0F8009095
:102C900003E0B6480088B449088039462846FEF764
:102CA00097F94FEA4A604FEA106A781C87B2B04839
:102CB0000088A84204DCAC48A0F80090BDE8F88F7A
:102CC0000098381AB0420BD1009F681C85B2A84802
:102CD0000088A84203DCA448A0F80090EEE706E0D4
:102CE0000BF1010000F0FF0BBBF1080FCADB00BFC6
:102CF000601CC4B2B442A8DB44E0002440E00C2EC7
:102D000007D108EB48009B4901EB800010F804A0B4
:102D100004E0944800EB081010F804A04FF0000BFA
:102D200028E01AF0800F03D039462846FEF750F904
:102D30004FEA4A604FEA106A781C87B28C48408894
:102D4000A84203DC8848A0F80090B7E70098381A3A
:102D5000B0420BD1009F681C85B285480088A8420C
:102D600003DC8148A0F80090A8E706E00BF1010021
:102D700000F0FF0BBBF1080FD3DB00BF601CC4B237
:102D8000B442BCDB7848A0F8009000BF96E710B5CD
:102D90000246012000E050430B00A1F10104E1B222
:102DA000F9D110BD2DE9FF4F81B0074691461E466F
:102DB0000E9D4FF0000A00243BE0301B401EC1B2C4
:102DC0000A20FFF7E4FFB9FBF0F00A21B0FBF1F2B3
:102DD00001FB120000F0FF08BAF1000F16D1701EBF
:102DE000A04213DDB8F1000F0ED10023AB4605EB76
:102DF000D571491001FB047188B200932B46202243
:102E00000299FFF70FFF12E04FF0010A0023AB46D3
:102E100005EBD571491001FB047188B200932B4674
:102E200008F13001CAB20299FFF7FCFE00BF601C36
:102E3000C4B2B442C1DB05B0BDE8F08F2DE9FF4F4D
:102E400082B0064692461F46DDE90F4800200190F9
:102E500000254FE0781B401EC1B20A20FFF797FF04
:102E6000BAFBF0F00A21B0FBF1F201FB120000F016
:102E7000FF09019850BB781EA84227DDB9F1000F69
:102E800022D118F0800F0FD008F00103A34604EB05
:102E9000D471491001FB056188B2009323463022AA
:102EA0000399FFF7BFFE0EE008F00103A34604EB11
:102EB000D471491001FB056188B20093234620229A
:102EC0000399FFF7AFFE13E00120019008F0010322
:102ED000A34604EBD471491001FB056188B200934D
:102EE000234609F13001CAB20399FFF79BFE00BFE8
:102EF000681CC5B2BD42ADDB06B0BDE8F08F2DE960
:102F0000F84704460D4690469946DDE9096704F006
:102F1000FF0A08EB04001FFA80F809EB05001FFA0E
:102F200080F916E0444502DB5446A81985B24D45A8
:102F300000DB14E0002300933A783346294620460C
:102F4000FFF770FE304606EBD67104EB61018CB2E0
:102F50007F1C38787E2802DC38782028E2DA00BF2F
:102F6000BDE8F887026A000816000020180000205B
:102F7000E00000208E65000808B50121082001F05E
:102F8000B6FF4FF44060ADF8000010208DF803004C
:102F900003208DF8020069469F4801F0F5FC4FF4CC
:102FA00040619D4801F09BFD01209C4908609C49BF
:102FB000C1F8AC0108BD10B59A48006820F4704013
:102FC0009949C1F8040C0846D0F8040C40F440506C
:102FD000944908604FF00100944908609049C1F895
:102FE000A8014FF0040000F015FF00208C49C1F843
:102FF000AC01042000F00EFF00208949C1F8A801AF
:1030000010BD10B58748006820F470408649C1F8AB
:10301000040C0846D0F8040C40F440508149086084
:103020004FF000007D4908607D49C1F8AC014FF0C8
:10303000040000F0EFFE0120784908607849C1F8EB
:10304000AC014FF0040000F0E5FE10BD10B5002407
:103050007448006820F470407349C1F8040C0846B5
:10306000D0F8040C40F400406E4908604FF00100B5
:103070006E49086000F0CEFE01206949C1F8A80140
:1030800000F0C8FE07E0601CC4B2FA2C03DDFFF7B5
:10309000B8FF012010BD664800680028F3D15F49E1
:1030A000086000BFF6E710B500205C4908605E4884
:1030B000D0F8040C20F470405B49C1F8040C0846B9
:1030C000D0F8040C40F44050564908604FF000001E
:1030D0005349C1F8AC014FF0020000F09BFE012003
:1030E0004F49C1F8A801022000F094FE00204C498D
:1030F000C1F8A80110BD10B50020484908604A4831
:10310000D0F8040C20F470404749C1F8040C08467C
:10311000D0F8040C40F44050424908604FF00100E0
:103120003F49C1F8AC014FF0020000F073FE0120EE
:103130003B49C1F8A801022000F06CFE002038498C
:10314000C1F8A80110BD70B504463648006820F4E7
:1031500070403549C1F8040C0846D0F8040C40F41E
:103160004050304908604FF000002C490860054687
:103170001AE0E0092D4908604FEA44604FEA106404
:103180004FF0020000F046FE01202549C1F8A801D9
:10319000022000F03FFE0020204908604FF00200AE
:1031A00000F038FE681CC5B2082DE2DB70BD70B5BA
:1031B000054600241B48006820F470401A49C1F8F5
:1031C000040C0846D0F8040C40F40040C1F8040C8C
:1031D0004FF0000616E00020104908604FF0020092
:1031E00000F018FE01200E49C1F8A8016006040E87
:1031F0000F48006808B1601CC4B2012000F00AFE4C
:10320000701CC6B2082EE6DB15B9FFF774FF01E0AB
:10321000FFF749FF204670BD000C0140A881214204
:1032200000802142040C014000000140AC81214299
:103230002C81214270B505460C46FFF7BCFED0201C
:10324000FFF781FFFFF702FF2846FFF77CFFFFF73C
:10325000FDFE2046FFF777FFFFF7F8FEFFF7D1FEF0
:1032600070BD70B50446FFF7A6FED020FFF76BFFD8
:10327000FFF7ECFE2046FFF766FFFFF7E7FEFFF7DC
:103280009AFED120FFF75FFFFFF7E0FE0020FFF777
:103290008EFF0546FFF7B5FE284670BD10B5FFF757
:1032A0006BFE0A2000F0D9FD00216B20FFF7C2FF62
:1032B00007211920FFF7BEFF06211A20FFF7BAFFEA
:1032C00018211B20FFF7B6FF00211C20FFF7B2FFDB
:1032D00010BD70B504462046FFF7C3FF0546601CCD
:1032E000C0B2FFF7BEFF064606EB052000B270BD78
:1032F0002DE9F05F3B20FFF7ECFF044602F064FF8E
:103300001E4908601E4801681C48006803F0CAF89E
:1033100004464FF08D4102F059FE1A4908600846F4
:10332000006802F0B9FD80464FF03332164B02F0D0
:10333000CBFB06460022154B02F0C6FB0446144A9E
:10334000144B02F051FA824602F074F90D490860FC
:103350004520FFF7BEFFA0F13204204602F034FF03
:103360000D4908600846006880F000440B4920467B
:1033700002F02CFE08490860BDE8F09F28000020FC
:103380001C0000202C0000203333F33F00806640F7
:103390001F85EB51B81E094020000020000030427C
:1033A0002DE9F04105460C4689480168204603F0A6
:1033B00079F8074687480168384602F065FF0646F7
:1033C00085480168304602F093FD834908608348D0
:1033D00041688348006803F065F806467F488168C5
:1033E000304603F05FF87F4908607C48C06880F091
:1033F000004048607948C06880F0004088607A48A2
:103400000068C86008687349096802F03DFF064615
:1034100072480168304602F06BFD704908607149DE
:1034200048686C49096802F02FFF06466B484168FE
:10343000304602F05DFD694948606A49886865491F
:10344000096802F021FF064664488168304602F0B0
:103450004FFD624988606349C8685E49096802F0A7
:1034600013FF06465D48C168304602F041FD5B49E6
:10347000C86059480168284603F014F85B490860A1
:103480005B48007802F0B8FE0646544801683046B2
:1034900002F0FAFE574908605548007802F0ACFE89
:1034A00006464E488168304602F0EEFE52490860FA
:1034B0004F48007802F0A0FE07464E4801683846A3
:1034C00002F0E2FE06464D480168304602F010FD6B
:1034D0004B490860084601684648006802F076FDDE
:1034E00048490860464801684348006802F06EFD9C
:1034F000454908603F480068444908603C480078F6
:1035000002F07AFE064635484168304602F0BCFEBD
:103510003F4908603D4801683A48006802F0B4FE3F
:1035200006462E480168304602F0B2FF2B4908607B
:10353000374801683348006802F0A6FE064627486F
:103540004168304602F0A4FF244948602F480168D2
:103550002D48006802F098FE0646204881683046F3
:1035600002F096FF1D4988602948016826480068D6
:1035700002F08AFE06461948C168304602F088FF0C
:103580001649C860194801681E48006802F07CFEB0
:10359000064611480168304602F0AAFC0E49086050
:1035A000124801681848006802F06EFE0646084896
:1035B0000168304602F09CFC054908600846016835
:1035C000204602F06FFF13490860BDE8F08100005B
:1035D0005C0000203C00002054000020440000203B
:1035E00030000020EC0000203400002060000020AB
:1035F0004000002064000020680000203800002007
:103600006C00002070000020740000207800002072
:103610007C0000202000002000280ADA0122424B12
:103620001A604FF00002414BC3F8B021C0F1000016
:1036300007E000223C4B1A604FF001023B4BC3F8FD
:10364000B02100290ADA0122394B1A604FF000023A
:10365000384BC3F89421C1F1000107E00022344B3C
:103660001A604FF00102334BC3F89421FF2800DDAC
:10367000FF20FF2900DDFF214FF0804398869987C6
:10368000704770B52C4801682C48006802F0FCFDBA
:1036900004462B4801682B48006802F0F5FD0546FA
:1036A000214602F025FC284908602848016828487E
:1036B000006802F0E9FD05462648016826480068D2
:1036C00002F0E2FD0646294602F012FC04461E48BE
:1036D0000168204602F00CFC1B4908601F48006886
:1036E00002F072FD044618480168204602F000FC12
:1036F0001B4908601948006802F066FD044612483C
:103700000168204602F0C4FE1649086014480068AB
:1037100002F01EFD04461348006802F019FD05463C
:103720002146FFF779FF70BDAC0121420000214224
:10373000900122420000224284000020200000204C
:103740008000002054000020980000208C00002001
:10375000A400002088000020A0000020B400002069
:1037600090000020940000205248806940F008003A
:10377000504988610846806940F0010088614E48E0
:10378000006820F07F404D49C1F8000C0846D0F891
:10379000000C40F08840C1F8000C4648C06940F079
:1037A00004004449C8614FF000004549088001F118
:1037B0000401088001F10401088001F1040108807E
:1037C00001F10401088001F1040108803D490880ED
:1037D0003D49088001F1040108804FF001003B4998
:1037E00008804FF000003A49088001F10401088088
:1037F0004FF6FF7001F1040108804FF001004FF017
:103800008041A1F8000870473148008800B2704735
:103810002F4A108070472DE9F84FFFF7F5FF009011
:1038200002F03AF904464FF033322A4B02F04CF9D9
:1038300006460F462848006802F02EFB04464FF06B
:103840006632264B02F040F9804632463B4601F094
:1038500023FF824601F0EEFE1F4908600020FFF7BB
:10386000D7FF1D4801681E48006802F041FB1C4953
:1038700008601C48006802F0A7FC0446184801686C
:10388000204602F035FB16490860174914480068C5
:1038900002F0C6FC02D214481149086013491048CE
:1038A000006802F0C4FD02D210480D490860BDE86E
:1038B000F88F000000100240000C014000000140A1
:1038C000000800401C08004048080040080800406C
:1038D000240800403333D33FA00000206666E63F53
:1038E000A4000020B80000200080BBC50080BB45BC
:1038F00010B55E48008810F0010F0BD0FFF7F8FC00
:103900005B4801685B480068FFF74AFDFFF783FFEB
:10391000FFF7B7FE5548008820F001004FF08041C6
:10392000A1F8100410BD5448806940F004005249C9
:1039300088610846806940F0100088614F4800683F
:1039400020F47F204E49C1F804080846D0F8040846
:1039500040F44C30C1F804080846D0F80C0840F494
:10396000C050C1F80C084748006820F47F00454962
:1039700008600846006840F44C1008600846C068BB
:1039800040F03000C860704770B504460D463A48B4
:10399000C06940F002003849C8613B4804804FF0DC
:1039A0008040A0F82854B0F80C0440F001004FF01B
:1039B0008041A1F80C040846B0F80C0440F0400027
:1039C000A1F80C040846B0F8000440F00100A1F88A
:1039D00000044FF002034FF01D024FF003011846A0
:1039E00000F081FA70BD244A926942F00402224B31
:1039F0009A611A46D26942F00102DA61234A1268DA
:103A000040F60F7322EA03021D4BC3F800281F4A39
:103A1000126840F60A2342EA03021C4B1A604FF078
:103A200000024FF080431A809A801A819A811A828C
:103A30009A82174B1A8003F104031A804FF0600238
:103A40004FF080431A839A8340F201121A844FF098
:103A500000029A841A46908511854FF000029A86DA
:103A60009A874FF001021A8070470000100400404E
:103A7000200000202C00002000100240040801401B
:103A800000000140001001402C04004000080140EB
:103A90004800004010B5C448C06940F00800C24961
:103AA000C8610846806940F004008861BF4800682A
:103AB00020F0F000BE49C1F800080846D0F8000820
:103AC00040F08000C1F800080846D0F80C0840F02B
:103AD0000200B849086042F21070B74908804FF000
:103AE00047004FF08041A1F8280C0846B0F8180CA8
:103AF00040F48070A1F8180C0846B0F8180C40F497
:103B00004050A1F8180CAD480088A1F8180CAC483A
:103B10000088A1F8200C0846B0F8200C40F01000F6
:103B2000A1F8200C0846B0F80C0C40F00400A1F8F5
:103B30000C0C0846B0F80C0C40F00100A1F80C0C7D
:103B40000846B0F8000C40F001009E4908804FF094
:103B500002034FF032024FF003014FF0010000F07A
:103B6000C2F90020984908609849086010BD98493A
:103B7000088810F0010F2BD09649097811F0800FBA
:103B800026D09449097821F01001924A117011460B
:103B9000097811F00F0F04D11146097841F0400166
:103BA00011708C49097801F00F010E2905DA894955
:103BB0000978491C874A11700AE08649097821F082
:103BC0008001844A11701146097801F0F0011170EA
:103BD00010F0040F14D08049096891B17849098820
:103BE00041F020014FF08042A2F8201C4FF000016C
:103BF000A2F8241C7749097841F01001754A117028
:103C000072E076490988764A11804FF08041B1F818
:103C1000201C21F020014FF08042A2F8201C6D49A9
:103C2000097811F0100F59D06A49097811F0800F06
:103C30003FD06B490988B1F5967F0DDD6849098849
:103C4000B1F5487F08DA674909684900654A11609B
:103C500011460968116041E061490988B1F5AF6F0B
:103C60000FDD5F490988B1F5E16F0ADA5D4909683E
:103C700049005C4A11601146096841F00101116078
:103C80002CE05749098840F69802914226DD5449B4
:103C9000098840F62822914220DA53490978491CC4
:103CA000514A11704B49097801F0F001494A1170ED
:103CB00014E04B49098841F2680291420EDD4849FF
:103CC000098841F25C22914208DA4249097841F0C0
:103CD0008001404A11700021434A11703D49097822
:103CE00021F010013B4A11700021394A11807047C0
:103CF00010B50020374B1B7813F0400F26D0394BFE
:103D00001B68190E374B1B68C3F30742D343DBB262
:103D100099420CD159B9334B1B68C3F30721314B7E
:103D20001B68DAB2D343DBB2994200D1084620B116
:103D3000284B1B7813F0800F08D1264B1B7823F0FB
:103D40004003244C23700023274C237010BD10B572
:103D5000FFF7CEFF0446622C0AD004DC022C19D0F7
:103D6000222C1DD10DE0A82C06D0C22C18D10CE0BD
:103D700064201649086014E06FF06300134908607E
:103D80000FE00320104908600BE06FF002000E49BD
:103D9000086006E000200C4908600C49086000E05B
:103DA00000BF00BF10BD000000100240000801402D
:103DB000000001400C0801402C0C0040180C004091
:103DC000200C0040000C0040B4000020B80000208F
:103DD000100C0040A800002004012142380C0040D3
:103DE000BC000020AC000020B000002010B56FF037
:103DF000040000F03AFA2A4800682A49B0FBF1F0C2
:103E000029490870084600784FF47A7148432749D9
:103E1000088010BD0146244A12784A434FF0E0233F
:103E20005A6100229A611A46126942F001021A612F
:103E300000BF4FF0E022106910F0010F02D010F423
:103E4000803FF6D04FF0E022126922F001024FF0DD
:103E5000E0231A6100229A6170470146134A1288D2
:103E60004A434FF0E0235A6100229A611A461269D0
:103E700042F001021A6100BF4FF0E022106910F019
:103E8000010F02D010F4803FF6D04FF0E02212690B
:103E900022F001024FF0E0231A6100229A6170477C
:103EA0000000002000127A00BE000020C0000020A8
:103EB00010B54FF4A06000F07FF910BD0146072354
:103EC00023EA01021202504B18684FF6FF0300EA82
:103ED00003004E4B40EA030040EA02004FF0E023AB
:103EE000C3F80C0D70472DE9F0410746884614468B
:103EF0001D462846FFF7E2FFC5F1040007FA00F669
:103F00000F20284100EA0800064306F00F06202C87
:103F10000CDA3F4800684FF0010101FA04F140EA71
:103F200001004FF0E021C1F800010DE039480068C0
:103F3000A4F120014FF0010202FA01F240EA02006E
:103F40004FF0E021C1F804013348005D40EA06105B
:103F5000C1B231480155BDE8F081304A0A40024300
:103F60002F4B1A60704770B504460B46CE1701EB15
:103F70009676B010CE1701EB9676B610A1EB8606BA
:103F8000B606350E274B9B6943F00103254EB361FE
:103F90004FEAB63353F820300F26AE40B343224EDB
:103FA00046F82030334653F8203004FA05F6334300
:103FB0001D4E46F820301D4B1E684FF0010303FADA
:103FC00001F346EA03061A4BC3F8006412F0010F2E
:103FD0000AD0184B1B684FF0010606FA01F643EAB7
:103FE0000603134EC6F80C3412F0020F0AD0124B1F
:103FF0001B684FF0010606FA01F643EA06030C4E71
:10400000C6F8083470BD00000CED00E00000FA05B1
:1040100000E100E004E100E000E400E080FFFF1FB9
:1040200008ED00E0001002400800014000040140DB
:10403000000001400C04014008040140014600BF9B
:10404000704700BF474A128812F0400FFAD0C2B240
:10405000454B1A80704710B586B00446012144F2E2
:10406000040000F044FF3F4800F0ACFF4FF4007044
:10407000ADF8140003208DF8160018208DF81700F5
:1040800005A93A4800F080FC4FF48060ADF81400B8
:1040900004208DF8170005A9344800F075FC252090
:1040A0008DF8000003208DF801008DF8020001203A
:1040B0008DF80300684600F084F801940020ADF804
:1040C0000800ADF80A00ADF80C00ADF810000C20A7
:1040D000ADF80E0001A9234800F0B7FF01212148E7
:1040E00001F03FF806B010BD10B540F225511D4853
:1040F00001F02BF910B31B4801F0A7F8C4B21C481B
:10410000008810F4004F2BD11948008810F4804F1C
:104110000CD00A2C03D000201549088020E0144858
:10412000008840F400401249088019E00D2C06D1A7
:104130000F48008840F480400D49088010E00C488A
:104140000088C0F30D000B490C5409480088401C3E
:104150000749088008460088C72801DD002008803C
:1041600010BD000000380140043801400008014043
:10417000C4000020FC00002009488047094800478F
:10418000FEE7FEE7FEE7FEE7FEE7FEE7FEE7FEE707
:10419000FEE7FEE704480549054A064B7047000064
:1041A0002509000831010008280200202808002005
:1041B000280400202804002036490143364A1160B3
:1041C000704770B5002100230F22C4784CB3324CE5
:1041D000246804F4E064C4F5E0644FEA1421C1F1FA
:1041E000040322FA01F2447804FA03F1847804EA21
:1041F000020444EA01014FEA0111284C0678A15556
:10420000047804F01F054FF0010404FA05F4057862
:104210004FEA65154FF0E02606EB8505C5F800412D
:1042200009E0047804F01F050124AC401C4D067819
:10423000761145F8264070BD1A4A0A4002431A4BCF
:104240001A60704741B1194A126842EA00024FF001
:10425000E023C3F8102D07E0144A126822EA000296
:104260004FF0E023C3F8102D7047042808D14FF019
:10427000E021096941F004014FF0E022116107E0FB
:104280004FF0E021096921F004014FF0E0221161B3
:10429000704700000000FA050CED00E000E400E0CB
:1042A00080E100E080FFFF1F08ED00E010ED00E07E
:1042B00030B943F2DB014FF0204242F8201005E014
:1042C00043F2D2014FF0204242F820106FF07042CA
:1042D000411C4FF0204343F8212011461A4602EBBF
:1042E0008002C2F80411704710280AD118214FF03B
:1042F00020421166402151664FF0FC319166D16633
:1043000010E01821F84A11604FF040014FF02042B0
:10431000C2F884104FF0FC31F44A11604FF0204293
:10432000C2F88C1070471820F14908604FF0000067
:104330004FF02041C1F8A4004FF0FC30ED49086077
:1043400001F10401086001F1040108607047D0E93F
:1043500001121143C26811430269114342691143BA
:1043600082691143C2691143026A1143426A1143CF
:10437000826A1143C26A1143026B11434FF020431A
:10438000026843F822108168082908D11A4601689A
:1043900052F8211041F04001026843F82210416BAD
:1043A0000968426B526841EA0211426B926841EA25
:1043B0000221426BD26841EA0241426B126941EA32
:1043C0000251426B526941EA0261426B92691143A8
:1043D0000268521C4FF0204343F82210C16AB1F525
:1043E000804F1AD1816B0968826B526841EA0211D1
:1043F000826B926841EA0221826B126941EA0251A2
:10440000826B526941EA0261826B926911430268D0
:1044100003EB8202C2F8041108E06FF070414FF024
:104420002043026803EB8202C2F80411704730B5E2
:10443000002100220023446844F0080485682C43CE
:10444000C5682C4305692C43456944EA45248569C0
:1044500044EA4531C4692468C5696D6844EA0524A5
:10446000C569AD6844EA0544C569ED6844EA05627A
:10447000046A2468056A6D6844EA0524056AAD6823
:1044800044EA0544056AED6844EA05630468102CB3
:1044900005D14FF020442166A266E36607E0924C06
:1044A00021604FF02044C4F88820934C236030BD35
:1044B000016841F01001426841EA4221826841EA04
:1044C00042318B4A1160C1680968C268526841EA8A
:1044D0000221C268926841EA0241C268D26841EA98
:1044E0000261844A1160016909680269526841EAFF
:1044F00002210269926841EA02410269D26841EAF6
:1045000002617E4A1160416909684269526841EA64
:1045100002214269926841EA02414269D26841EA55
:1045200002614FF02042C2F8B010704700210160D4
:104530000221416000218160C160016141618161AE
:10454000C16101624FF480514162490081620021E2
:10455000C16201630F21426B1160426B5160FF2108
:10456000426B91600F21426BD160426B1161426BD3
:1045700051610021426B91610F21826B1160826B4E
:104580005160FF21826B91600F21826BD160826B41
:104590001161826B51610021826B91617047102122
:1045A0000160002141608160C16001614161816100
:1045B000FC21C2691160C2695160C2699160C2691F
:1045C000D160026A1160026A5160026A9160026AF7
:1045D000D16070470021016041608160FC21C268A8
:1045E0001160C2685160C2689160C268D16002699E
:1045F000116002695160026991600269D16042698B
:10460000116042695160426991604269D1607047AE
:1046100051B14FF0204252F8202042F001024FF0F9
:10462000204343F8202009E04FF0204252F8202098
:10463000334B1A404FF0204343F82020704799B184
:10464000102808D14FF02042126E42F004024FF0C1
:1046500020431A661DE0244A126842F004024FF01B
:104660002043C3F8802014E0102809D14FF02042E5
:10467000126E234BDB1E1A404FF020431A6608E0EF
:10468000194A12681F4B02EA03024FF02043C3F895
:104690008020704740B11649096841F004014FF08D
:1046A0002042C2F8A01008E011490968154A01EA41
:1046B00002014FF02042C2F8A010704799B11028B3
:1046C00008D14FF02042126E42F040024FF02043DA
:1046D0001A662DE0044A126842F040024FF020436F
:1046E000C3F8802024E00FE0800000A0880000A034
:1046F000A00000A0A80000A08C0000A0AC0000A0BA
:10470000FEFF0F00FBFF0F00102808D14FF02042E2
:10471000126E684B1A404FF020431A6608E0664A52
:104720001268644B02EA03024FF02043C3F8802072
:10473000704701460020102903D14FF02042506FEE
:1047400001E05E4A1068704710B5F2B1102807D139
:104750004FF020435B6E0B434FF02044636632E022
:10476000B0F5807F08D1564B1B6843EA01034FF038
:104770002044C4F8843026E0524B1B6843EA01030E
:104780004FF02044C4F8A4301DE0102807D14FF0AA
:1047900020435B6E8B434FF02044636613E0B0F51B
:1047A000807F08D1464B1B6823EA01034FF0204469
:1047B000C4F8843007E0434B1B6823EA01034FF041
:1047C0002044C4F8A43010BD10B5024600200023D8
:1047D000102A03D14FF02044636E07E0B2F5807FCA
:1047E00002D1374C236801E0364C23680B4201D0DC
:1047F000012000E0002010BD102807D14FF020421A
:10480000526E8A434FF020435A6613E0B0F5807F22
:1048100008D12B4A126822EA01024FF02043C3F864
:10482000842007E0274A126822EA01024FF0204361
:10483000C3F8A420704770B502460020002300246E
:104840000025102A03D14FF02046736E07E0B2F521
:10485000807F02D11A4E336801E01A4E336803EAB2
:10486000010403EAD10514B10DB1012000E00020DC
:1048700070BD102808D14FF02042526E22EAD102BA
:104880004FF020435A6613E0B0F5807F08D10C4A00
:10489000126822EAD1024FF02043C3F8842007E0D7
:1048A000084A126822EAD1024FF02043C3F8A4203C
:1048B00070470000BFFF0F00800000A0940000A020
:1048C000840000A0A40000A010B50446CA48844299
:1048D00008D10121042000F024FB0021042000F075
:1048E00020FB46E0C548844208D10121082000F0A1
:1048F00018FB0021082000F014FB3AE0C048844275
:1049000008D10121102000F00CFB0021102000F044
:1049100008FB2EE0BB48844208D10121202000F092
:1049200000FB0021202000F0FCFA22E0B64884427F
:1049300008D10121402000F0F4FA0021402000F0CD
:10494000F0FA16E0B148844208D10121802000F03D
:10495000E8FA0021802000F0E4FA0AE0AC48844242
:1049600007D10121801500F0DCFA0021A01500F02C
:10497000D8FA10BD10B50121084600F0D2FA002186
:10498000012000F0CEFA10BD2DE9F04102460025CD
:104990000026002000230024002791F803C00CF01B
:1049A0000F0591F803C01CF0100F03D091F802C05E
:1049B0004CEA0505B1F800C01CF0FF0F31D01468B7
:1049C00000202BE04FF0010C0CFA00F3B1F800C00E
:1049D0000CEA03069E4220D183004FF00F0C0CFA24
:1049E00003F7BC4305FA03FC4CEA040491F803C046
:1049F000BCF1280F06D14FF0010C0CFA00FCC2F8F4
:104A000014C00AE091F803C0BCF1480F05D14FF083
:104A1000010C0CFA00FCC2F810C0401C0828D1D3CD
:104A20001460B1F800C0BCF1FF0F34DD5468002001
:104A30002EE000F1080C4FF0010808FA0CF3B1F871
:104A400000C00CEA03069E4221D183004FF00F0CF8
:104A50000CFA03F7BC4305FA03FC4CEA040491F892
:104A600003C0BCF1280F05D100F1080C08FA0CF8BE
:104A7000C2F8148091F803C0BCF1480F07D100F1CF
:104A8000080C4FF0010808FA0CF8C2F81080401C1E
:104A90000828CED35460BDE8F0814FF6FF71018045
:104AA000022181700421C170704702460020936882
:104AB0000B4201D0012000E00020704701468868C9
:104AC00080B2704702460020D3680B4201D001201B
:104AD00000E0002070470146C86880B2704701615D
:104AE0007047416170470AB1016100E04161704760
:104AF000C16070474FF480320A43826181618261F4
:104B000082698269704702460020424B18684FF65E
:104B10008073184040EA021008433E4B186070470B
:104B20003D49C8617047F0B50A46002300240021C2
:104B3000002500F00046B6F1004F02D1354EF16974
:104B400001E0344E7168C0F3034583B200F44016AF
:104B5000B6F5401F08D121F070612E4E766826F020
:104B600070662C4F7E6012E000F48016B6F5801F50
:104B700006D1032606FA05F4A14341F0706106E070
:104B8000460D360103FA06F6B14341F0706122B1D9
:104B9000460D360103FA06F6314300F00046B6F141
:104BA000004F02D11B4EF16101E01A4E7160F0BD61
:104BB00030B500228B071C0F0F2303FA04F2154BAC
:104BC00008338C1053F824309343124C08348D1062
:104BD00044F8253023468C1053F824308C07240FDA
:104BE00000FA04F423430B4C08348D1044F82530AC
:104BF00030BD0A490860704700080140000C0140C0
:104C0000001001400014014000180140001C014048
:104C1000002001400000014000002042DC00204252
:104C2000DB48006840F00100D94908600846406848
:104C3000D8490840D649486008460068D649084027
:104C4000D34908600846006820F4802008600846C0
:104C5000406820F4FE0048604FF41F0088607047F1
:104C6000CB49096821F48031C94A116011460968AD
:104C700021F480211160B0F5803F03D0B0F5802F82
:104C80000ED106E0C249096841F48031C04A116082
:104C900007E0BF49096841F4A021BD4A116000E066
:104CA00000BF00BF704710B501460022002300205E
:104CB0004A11012A02D1B64C236806E0022A02D129
:104CC000B34C236A01E0B24C636A01F01F02012475
:104CD00094401C4201D0012000E0002010BD70B5BE
:104CE00000240025002600BF3120FFF7DCFF064628
:104CF000641CB4F5A06F01D0002EF5D03120FFF771
:104D0000D2FF08B1012500E00025284670BD01460C
:104D100000209F4A106820F0F80040EAC1001060AF
:104D200070479E490860704702460020984B5868BB
:104D300020F47C1042EA01031843954B58607047F9
:104D400096490866704701460020914A506820F055
:104D500003000843506070478D48406800F00C0025
:104D60007047014600208A4A506820F0F00008434E
:104D70005060704701460020854A506820F4E0608A
:104D800008435060704701460020814A506820F473
:104D9000605040EAC1005060704729B17C4A527AA5
:104DA00002437B4B5A7206E0794A527AC343DBB224
:104DB0001A40774B5A72704779490860704701462C
:104DC0000020734A506820F4404008435060704708
:104DD0000021744A11706E4A82F82010012802D016
:104DE000042808D103E001216E4A117004E0052176
:104DF0006C4A117000E000BF00BF70476A4908604C
:104E000070476349096A0143614A11627047674903
:104E10000860704730B500210022002400235C4D5B
:104E20006D6805F00C0121B1042905D0082923D1B2
:104E300005E05F4D056022E05D4D05601FE0544DCB
:104E40006D6805F47012524D6D6805F480340225CA
:104E500005EB92421CB9574D554305600BE04C4D94
:104E60006D6815F4003F03D0524D5543056002E0D4
:104E70004F4D5543056002E04D4D056000BF00BF3A
:104E8000434D6D6805F0F00109094B4D6B5C0568F9
:104E9000DD4045603E4D6D6805F4E061090A464D10
:104EA0006B5C4568DD408560394D6D6805F4605187
:104EB000C90A414D6B5C4568DD40C560344D6D6885
:104EC00005F44041890B3D4D6B5CC568B5FBF3F5BE
:104ED000056130BD29B12E4A526902432C4B5A61FB
:104EE00004E02B4A52698243294B5A61704729B129
:104EF000274A92690243264B9A6104E0244A926948
:104F00008243234B9A61704729B1214AD2690243F7
:104F10001F4BDA6104E01E4AD26982431C4BDA61FE
:104F2000704729B11A4AD2680243194BDA6004E08B
:104F3000174AD2688243164BDA60704729B1144A87
:104F400012690243124B1A6104E0114A126982434A
:104F50000F4B1A6170471A49086070470F49C864BF
:104F600070470B49C87170470948406A40F080702B
:104F700007494862704701460020054A92680A4284
:104F800001D0012000E0002070470149887270477D
:104F9000001002400000FFF8FFFFF6FE0000424252
:104FA000D800424220100240800442423C04424267
:104FB00000127A0000093D00CC000020DC00002037
:104FC0004004424210B50446FC48844209D1012104
:104FD0008803FFF7A6FF00214FF48040FFF7A1FFF1
:104FE00032E0F748844209D101214804FFF7A6FFC7
:104FF00000214FF40030FFF7A1FF25E0F148844283
:1050000009D101218804FFF799FF00214FF4802086
:10501000FFF794FF18E0EC48844209D10121C8044D
:10502000FFF78CFF00214FF40020FFF787FF0BE014
:10503000E648844208D101210805FFF77FFF0021DF
:105040004FF48010FFF77AFF10BD2DE9F04786B0CE
:1050500005460E460024A24600BFA1460027B0899F
:1050600000B100BF2F462C8A4CF6FF700440F08838
:1050700004432C82AC894EF6F3100440B088318989
:105080000843718908430443AC81AC8A4FF6FF4062
:105090000440B0890443AC8201A8FFF7BBFEC748B7
:1050A000874202D1DDF810A001E0DDF80CA0A8894C
:1050B00010F4004F08D00AEBCA0000EB0A10316868
:1050C0004900B0FBF1F807E00AEBCA0000EB0A1058
:1050D00031688900B0FBF1F86420B8FBF0F00401FE
:1050E0002009642101FB1089A88910F4004F08D021
:1050F000322000EBC900B0FBF1F000F007000443E0
:1051000008E0322000EB09106421B0FBF1F000F060
:105110000F0004432C8106B0BDE8F0874FF4165110
:10512000016000218180C18001810C214181002129
:105130008181704710B502460020108A4FF2FF03AC
:1051400018400B884C8823438C882343CC88234306
:105150001843108210BD0021018041808180C180F0
:10516000704721B1828942F40052828104E0828931
:105170004DF6FF731A4082817047F0B50346002454
:10518000002600250020A1F510676A3F00D100BF6E
:105190001846C1F3421401F01F06012707FA06F56D
:1051A000012C01D10C3004E0022C01D1103000E0C0
:1051B00014301AB107682F43076002E00768AF4355
:1051C0000760F0BD10B51AB1838A0B43838204E0F7
:1051D000838ACC43A4B22340838210BD028A4FF657
:1051E000F0731A400282028A0A430282704782895F
:1051F0004FF2FF731A40828182890A43828170478D
:1052000021B1828942F00202828104E082894FF654
:10521000FD731A4082817047028A4FF6DF731A408D
:105220000282028A0A430282704721B1028A42F452
:105230008042028204E0028A4BF6FF731A40028227
:105240007047C1F308028280704701468888C0F326
:1052500008007047818941F0010181817047028B0C
:10526000D2B20283028B42EA012202837047028B90
:1052700002F47F420283028B0A430283704721B10A
:10528000828A42F02002828204E0828A4FF6DF7333
:105290001A408282704721B1828A42F010028282D3
:1052A00004E0828A4FF6EF731A408282704721B180
:1052B000828A42F00802828204E0828A4FF6F77303
:1052C0001A408282704721B1828942F40042828171
:1052D00003E08289C2F30E028281704721B1828A83
:1052E00042F40062828204E0828A4FF2FF731A4025
:1052F00082827047828A4FF6FB731A408282828ACA
:105300000A438282704721B1828A42F0020282827D
:1053100004E0828A4FF6FD731A408282704702468B
:105320000020B1F5007F00D100BF13880B4201D0EF
:10533000012000E00020704701F40072B2F5007F08
:1053400000D100BFCA430280704770B502460024F6
:10535000002300250020A1F510666A3E00D100BFA1
:10536000C1F3421501F01F03012606FA03F3012DD4
:1053700002D19689334006E0022D02D1168A3340CD
:1053800001E0968A33400C12012606FA04F41688CE
:10539000344013B10CB1012000E0002070BD10B505
:1053A00000220023A1F510646A3C00D100BF0A125C
:1053B00001249440A3B2DC43048010BD00380140B6
:1053C0000044004000480040004C004000500040B5
:1053D000704700000FB4044910B503AA029800F00A
:1053E000C7F810BC5DF814FBC80000202DE9F0419F
:1053F00004460E4600200AE0E1682046884738B39C
:10540000252806D0D4E901219047206A401C20625B
:10541000F2E7E168204600278847050018D0A5F18B
:105420004100192802D820354FF40067324629463A
:1054300020462760FAF7B6FE40B1012804D0F61DD9
:1054400026F007060836D7E7361DD5E72846D9E700
:10545000206ABDE8F081000070B504460D46214683
:105460001068AFF300802168090502D5104A7A441C
:1054700002E00F4A7A440E32002104F1240307E0CF
:1054800000F00F064FEA1010965D5E5401F1010125
:105490000028F5D120680023000704D5702D02D024
:1054A00009B1113202232046BDE8704000F006B871
:1054B000801B000070477047704770472DE9F04728
:1054C0000D4604469246994600F124080168880674
:1054D00004D5E06921F01001216000E001200027DF
:1054E000A84201DDA0EB0507A16907EB050202EB6D
:1054F0000300A1EB0000A0612068C00602D4204692
:10550000AFF30080002608E0D4E901211AF8060074
:105510009047206A401C761C20624E45F4DB2068D0
:10552000C0060AD52046AFF3008006E0D4E9012189
:1055300030209047206A401C2062381EA7F10107E6
:10554000F4DC07E0D4E9012118F805009047206A4F
:10555000401C2062281EA5F10105F3DC2046AFF3B4
:10556000008021680220090600D40120BDE8F087F0
:10557000074B70B50C467B4400F011F805462046F9
:1055800000F020F810B14FF0FF3070BD284670BD1C
:10559000C9EAFFFF01694A1C02610878704700B53B
:1055A0008FB0CDE901310021059105497944CDE95C
:1055B000031011466846FFF719FF0FB000BD000049
:1055C000E5FFFFFFC06800F08000704700487047AB
:1055D000C40100207546FFF7F9FFAE460500694695
:1055E000534620F00700854618B020B5FEF7D2FDDF
:1055F000BDE820404FF000064FF000074FF00008D4
:105600004FF0000B21F00701AC46ACE8C009ACE854
:10561000C009ACE8C009ACE8C0098D467047044633
:10562000AFF300802046FAF7D1FD00000048704734
:10563000C801002021F00042A2F16052B2F5801FA3
:1056400001F0004328BFD2F17F6C0BD95FEA001C48
:1056500043EAC20242EB507018BF704728BF20F0E7
:1056600001007047B2F5801FBCBF184670474FEA73
:10567000410C1CF5001F02D2084600F0D3BE70B5E5
:1056800000F0CCFA00000089FFF7F6BF4FF00040B1
:10569000A0F580007047000010B591EA030F48BFE5
:1056A00083F0004300F11683841A71EB030C05D2DA
:1056B000121943EB0C03001B61EB0C01DFF824E132
:1056C0004FEA1154A4EB135C1EEA430F18BF9EEA85
:1056D000445F73D023EA0E03DCF1200E21EA04516B
:1056E00043F4801332D322FA0CFE10EB0E0023FA9F
:1056F0000CFE41EB0E01CCF1200E03FA0EFE10EB76
:105700000E0051F10001B1F5801FCCF1200E32D214
:1057100001EB045112FA0EF2BDE8104058BF704779
:10572000401C38BF5FEA420218BF7047002814BF10
:1057300020F0010041F100014FEA410313F5001F81
:1057400038BF7047A1F1C04100F0B6BA012A43EB5F
:105750000302ACF1200CDCF11F0E32BF4FF0000E43
:1057600023FA0CF310EB030041EB0451B4EB115F8F
:10577000D0D0A1EB045101F5801149085FEA300057
:1057800001EB04510ED350F1000038BF12FA0EFEA7
:1057900008D1BDE81040C9E7401C38BF5FEA4202AB
:1057A000CAD1C3E7BDE810404FEA410313F5001F1B
:1057B00038BF7047A1F1C04100F07EBA9EEA445F55
:1057C00008D011EA5E0FBDE8104004BF01F00041AF
:1057D00000207047BDE8104070B500F01FFA00BF10
:1057E00064FBBE3E0000E0FF2DE9C04130B4DFF8AD
:1057F000A0C23CEA111418BF3CEA131400F0EC807C
:1058000081EA03051CEA111444EAD57418BF1CEAA6
:10581000131500F0C780A4EB05044FF0004545EADE
:10582000C12145EAC32341EA505143EA525304F1EE
:105830007F74994204F500344FEAC0204FEAC22237
:1058400008BF904200F09C804FEA13650FF24016AB
:10585000765D4FEA134506FB05F7C7F1807706FB37
:1058600007F74FEAD737A7FB03687642C8F58038B9
:10587000A7FB06CE38BFA8F1010807FB08E64FF0EA
:10588000000EA6FB028CE6FB03CEDCF1000CCEF191
:10589000004E38BFAEF1010EA6FB0C584FF00007CA
:1058A0004FF00005E6FB0E87A1FB08C6A0FB07CE64
:1058B00016EB0E0645F10005E1FB076515F1E04E1C
:1058C0007EBFA4F580345FEA46066D4116F180077D
:1058D00045F100054FEA17274FEA066647EA0567D4
:1058E000A6F1DE46B6F1805F4FEA15251FD938468E
:1058F00024F0010C05EBC471BCF1FE6F01EB0C113F
:1059000002D8F0BCBDE8008124425CBF01F5801ED6
:105910009EEAC47F02D4F0BCBDE80081244238D4A2
:10592000F0BCA1F1C041BDE8004100F0C5B94FEAAB
:10593000D22242EA43524FEAD323A7FB02864FEA20
:10594000D02040EA415007FB03661EEA0E0F4FEAE3
:10595000D12105FB026658BFA6EB0056B6EB0056F8
:105960004FEA520E4EEAC37E18EB0E0E56EB530E64
:10597000BDD518EB02085E417F1C55F10005B6E766
:105980004FF480154FF000074FF000064FF000086D
:10599000ADE7F0BC4FF0000001F1C04101F0004163
:1059A000BDE8008111EA0C1F0CEA131500D00CE0D1
:1059B00013EA0C1F00F025804FF00000F0BC81EAD4
:1059C000030101F00041BDE80081F0BCBDE80041E9
:1059D00081EA030100F070B9F0BCBDE8004170B588
:1059E00000F01CF9097EFC3E00F007B881EA0301D3
:1059F0004FF0000001F00041704781EA030100F020
:105A00005BB9F0BCBDE800414FF000002149704790
:105A1000FFFDFBF9F7F5F4F2F0EEEDEBE9E8E6E473
:105A2000E3E1E0DEDDDBDAD8D7D5D4D3D1D0CFCDFA
:105A3000CCCBCAC8C7C6C5C4C2C1C0BFBEBDBCBB33
:105A4000BAB9B8B7B6B5B4B3B2B1B0AFAEADACAB2E
:105A5000AAA9A8A8A7A6A5A4A3A3A2A1A09F9F9E08
:105A60009D9C9C9B9A9999989797969595949393BA
:105A7000929191908F8F8E8E8D8C8C8B8B8A898951
:105A800088888787868585848483838282818180D4
:105A90000000FF070000F87F10F0004248BF4042BE
:105AA000B0FA80F310FA03F10AD0C3F11D0303F535
:105AB00080634FEA415002EB035202EBD121704761
:105AC0004FF0000070470000DFF848C170B51CEAD5
:105AD000111E1EBF1CEA13159EEA0C0F95EA0C0F4F
